{
  "_format": "hh-sol-artifact-1",
  "contractName": "Invoice",
  "sourceName": "contracts/Invoice.sol",
  "abi": [
    {
      "inputs": [
        {
          "internalType": "string",
          "name": "_buyerPAN",
          "type": "string"
        },
        {
          "internalType": "string",
          "name": "_sellerPAN",
          "type": "string"
        },
        {
          "internalType": "uint256",
          "name": "_amount",
          "type": "uint256"
        },
        {
          "internalType": "uint256",
          "name": "_date",
          "type": "uint256"
        },
        {
          "internalType": "bool",
          "name": "_paymentStatus",
          "type": "bool"
        },
        {
          "internalType": "address payable",
          "name": "_sellerAddress",
          "type": "address"
        },
        {
          "internalType": "uint256",
          "name": "_id",
          "type": "uint256"
        }
      ],
      "name": "addInvoice",
      "outputs": [],
      "stateMutability": "nonpayable",
      "type": "function"
    },
    {
      "inputs": [
        {
          "internalType": "string",
          "name": "_buyerPAN",
          "type": "string"
        }
      ],
      "name": "getInvoices",
      "outputs": [
        {
          "components": [
            {
              "internalType": "uint256",
              "name": "id",
              "type": "uint256"
            },
            {
              "internalType": "string",
              "name": "buyerPAN",
              "type": "string"
            },
            {
              "internalType": "string",
              "name": "sellerPAN",
              "type": "string"
            },
            {
              "internalType": "uint256",
              "name": "amount",
              "type": "uint256"
            },
            {
              "internalType": "uint256",
              "name": "date",
              "type": "uint256"
            },
            {
              "internalType": "bool",
              "name": "paymentStatus",
              "type": "bool"
            },
            {
              "internalType": "address payable",
              "name": "sellerAddress",
              "type": "address"
            }
          ],
          "internalType": "struct Invoice.Transaction[]",
          "name": "",
          "type": "tuple[]"
        }
      ],
      "stateMutability": "view",
      "type": "function"
    },
    {
      "inputs": [
        {
          "internalType": "uint256",
          "name": "_id",
          "type": "uint256"
        }
      ],
      "name": "getPaymentStatus",
      "outputs": [
        {
          "internalType": "bool",
          "name": "",
          "type": "bool"
        }
      ],
      "stateMutability": "view",
      "type": "function"
    }
  ],
  "bytecode": "0x608060405234801561001057600080fd5b50610ce8806100206000396000f3fe608060405234801561001057600080fd5b50600436106100415760003560e01c80635f99adf014610046578063a165004314610076578063b49949ee146100a6575b600080fd5b610060600480360381019061005b91906106fd565b6100c2565b60405161006d9190610a1e565b60405180910390f35b610090600480360381019061008b919061080c565b6102f2565b60405161009d9190610a40565b60405180910390f35b6100c060048036038101906100bb919061073e565b610337565b005b60606000826040516100d49190610a07565b9081526020016040518091039020805480602002602001604051908101604052809291908181526020016000905b828210156102e757838290600052602060002090600602016040518060e00160405290816000820154815260200160018201805461013f90610b9b565b80601f016020809104026020016040519081016040528092919081815260200182805461016b90610b9b565b80156101b85780601f1061018d576101008083540402835291602001916101b8565b820191906000526020600020905b81548152906001019060200180831161019b57829003601f168201915b505050505081526020016002820180546101d190610b9b565b80601f01602080910402602001604051908101604052809291908181526020018280546101fd90610b9b565b801561024a5780601f1061021f5761010080835404028352916020019161024a565b820191906000526020600020905b81548152906001019060200180831161022d57829003601f168201915b5050505050815260200160038201548152602001600482015481526020016005820160009054906101000a900460ff161515151581526020016005820160019054906101000a900473ffffffffffffffffffffffffffffffffffffffff1673ffffffffffffffffffffffffffffffffffffffff1673ffffffffffffffffffffffffffffffffffffffff168152505081526020019060010190610102565b505050509050919050565b6000600115156001600084815260200190815260200160002060050160009054906101000a900460ff161515141561032d5760019050610332565b600090505b919050565b6000876040516103479190610a07565b90815260200160405180910390206040518060e0016040528083815260200189815260200188815260200187815260200186815260200185151581526020018473ffffffffffffffffffffffffffffffffffffffff1681525090806001815401808255809150506001900390600052602060002090600602016000909190919091506000820151816000015560208201518160010190805190602001906103ef9291906105b3565b50604082015181600201908051906020019061040c9291906105b3565b50606082015181600301556080820151816004015560a08201518160050160006101000a81548160ff02191690831515021790555060c08201518160050160016101000a81548173ffffffffffffffffffffffffffffffffffffffff021916908373ffffffffffffffffffffffffffffffffffffffff16021790555050506040518060e0016040528082815260200188815260200187815260200186815260200185815260200184151581526020018373ffffffffffffffffffffffffffffffffffffffff168152506001600083815260200190815260200160002060008201518160000155602082015181600101908051906020019061050e9291906105b3565b50604082015181600201908051906020019061052b9291906105b3565b50606082015181600301556080820151816004015560a08201518160050160006101000a81548160ff02191690831515021790555060c08201518160050160016101000a81548173ffffffffffffffffffffffffffffffffffffffff021916908373ffffffffffffffffffffffffffffffffffffffff16021790555090505050505050505050565b8280546105bf90610b9b565b90600052602060002090601f0160209004810192826105e15760008555610628565b82601f106105fa57805160ff1916838001178555610628565b82800160010185558215610628579182015b8281111561062757825182559160200191906001019061060c565b5b5090506106359190610639565b5090565b5b8082111561065257600081600090555060010161063a565b5090565b600061066961066484610a80565b610a5b565b90508281526020810184848401111561068157600080fd5b61068c848285610b59565b509392505050565b6000813590506106a381610c6d565b92915050565b6000813590506106b881610c84565b92915050565b600082601f8301126106cf57600080fd5b81356106df848260208601610656565b91505092915050565b6000813590506106f781610c9b565b92915050565b60006020828403121561070f57600080fd5b600082013567ffffffffffffffff81111561072957600080fd5b610735848285016106be565b91505092915050565b600080600080600080600060e0888a03121561075957600080fd5b600088013567ffffffffffffffff81111561077357600080fd5b61077f8a828b016106be565b975050602088013567ffffffffffffffff81111561079c57600080fd5b6107a88a828b016106be565b96505060406107b98a828b016106e8565b95505060606107ca8a828b016106e8565b94505060806107db8a828b016106a9565b93505060a06107ec8a828b01610694565b92505060c06107fd8a828b016106e8565b91505092959891949750929550565b60006020828403121561081e57600080fd5b600061082c848285016106e8565b91505092915050565b60006108418383610955565b905092915050565b61085281610b11565b82525050565b600061086382610ac1565b61086d8185610ae4565b93508360208202850161087f85610ab1565b8060005b858110156108bb578484038952815161089c8582610835565b94506108a783610ad7565b925060208a01995050600181019050610883565b50829750879550505050505092915050565b6108d681610b23565b82525050565b6108e581610b23565b82525050565b60006108f682610acc565b6109008185610af5565b9350610910818560208601610b68565b61091981610c5c565b840191505092915050565b600061092f82610acc565b6109398185610b06565b9350610949818560208601610b68565b80840191505092915050565b600060e08301600083015161096d60008601826109f8565b506020830151848203602086015261098582826108eb565b9150506040830151848203604086015261099f82826108eb565b91505060608301516109b460608601826109f8565b5060808301516109c760808601826109f8565b5060a08301516109da60a08601826108cd565b5060c08301516109ed60c0860182610849565b508091505092915050565b610a0181610b4f565b82525050565b6000610a138284610924565b915081905092915050565b60006020820190508181036000830152610a388184610858565b905092915050565b6000602082019050610a5560008301846108dc565b92915050565b6000610a65610a76565b9050610a718282610bcd565b919050565b6000604051905090565b600067ffffffffffffffff821115610a9b57610a9a610c2d565b5b610aa482610c5c565b9050602081019050919050565b6000819050602082019050919050565b600081519050919050565b600081519050919050565b6000602082019050919050565b600082825260208201905092915050565b600082825260208201905092915050565b600081905092915050565b6000610b1c82610b2f565b9050919050565b60008115159050919050565b600073ffffffffffffffffffffffffffffffffffffffff82169050919050565b6000819050919050565b82818337600083830152505050565b60005b83811015610b86578082015181840152602081019050610b6b565b83811115610b95576000848401525b50505050565b60006002820490506001821680610bb357607f821691505b60208210811415610bc757610bc6610bfe565b5b50919050565b610bd682610c5c565b810181811067ffffffffffffffff82111715610bf557610bf4610c2d565b5b80604052505050565b7f4e487b7100000000000000000000000000000000000000000000000000000000600052602260045260246000fd5b7f4e487b7100000000000000000000000000000000000000000000000000000000600052604160045260246000fd5b6000601f19601f8301169050919050565b610c7681610b11565b8114610c8157600080fd5b50565b610c8d81610b23565b8114610c9857600080fd5b50565b610ca481610b4f565b8114610caf57600080fd5b5056fea264697066735822122088a01a696df189eb393e08b7fe665750af6ef62a48f04737872a57337618aeba64736f6c63430008040033",
  "linkReferences": {},
  "deployedLinkReferences": {}
}